:020000040800F2
:100000001007002045010008EB1F0008BD1D000877
:10001000E91F000853020008FD2600080000000048
:10002000000000000000000000000000EF1F0008BA
:100030008B02000800000000ED1F0008F11F0008FF
:100040005F0100085F0100085F0100085F01000810
:100050005F0100085F0100085F0100085F01000800
:100060005F0100085F0100085F0100085F010008F0
:100070005F010008550200085F0100085F010008E9
:100080005F0100085F0100085F0100085F010008D0
:100090005F0100085F0100085F0100088D02000891
:1000A0005F0100085F0100085F0100085F010008B0
:1000B00055200008612000085F0100085F0100086A
:1000C0005F0100085F0100085F0100085F01000890
:1000D0005F0100088D26000899260008A526000863
:1000E0005F0100085F0100085F0100085F01000870
:1000F0005F0100085F0100085F0100085F01000860
:100100005F0100085F0100085F0100085F0100084F
:100110005F0100085F0100085F0100085F0100083F
:100120005F0100085F0100085F0100085F0100082F
:10013000DFF80CD000F06CF800480047A529000853
:10014000100700200648804706480047FEE7FEE704
:10015000FEE7FEE7FEE7FEE7FEE7FEE7FEE7FEE777
:100160005320000831010008202A04DB203A21FA3C
:1001700002F00021704721FA02F3D040C2F12002C0
:100180009140084319467047D2B201E000F8012BB4
:10019000491EFBD270470022F6E710B513460A4607
:1001A00004461946FFF7F0FF204610BD2DE9F05F29
:1001B0000546002092469B468846064681464024D6
:1001C0001BE02846414647462246FFF7CDFF5346EF
:1001D0005A46C01A914110D311461846224600F0E3
:1001E00029F82D1A67EB01084F462246012000210D
:1001F00000F020F817EB00094E41201EA4F1010485
:10020000DFDC484631462A464346BDE8F09F000001
:10021000064C074D06E0E06840F0010394E8070053
:1002200098471034AC42F6D3FFF786FFAC2A00089B
:10023000CC2A0008202A04DB203A00FA02F1002030
:1002400070479140C2F1200320FA03F31943904014
:100250007047FEE7014800F0DBB8000068020020AC
:1002600030B590F840500124AC40C56B6C60046818
:1002700063604368102B036803D099600068C26014
:1002800030BD9A600068C16030BD70474FF4807027
:1002900000F05ABA72B6FEE710B590F821100022AD
:1002A000022905D00421816380F82020012010BD9F
:1002B00001680B6823F00E030B6001680B6823F0E4
:1002C00001030B6090F84030C46B012101FA03F385
:1002D000636080F8211080F82020104610BD0000D7
:1002E0002DE9F05F90F821100024022903D00421A9
:1002F0008163012485E001680A6822F00E020A6029
:1003000001680A6822F001020A603F4E3E4FB215B2
:10031000DFF8F4C0DFF8F090DFF8ECA0DFF8E8B029
:10032000DFF8E4E00168783F13011502ACF1640CDA
:10033000A9F15009AAF13C0AABF1280BAEF1140E59
:100340004FF48018B14227D9B9420ED0614512D07E
:1003500049451DD0514518D0594518D0714501D196
:10036000424615E0294EB14201D1012210E0274E4C
:100370001436B14201D110220AE0244E2836B1428F
:1003800006D0224A3C32914201D11A4600E02A4668
:100390001E49091F0A602BE0B94213D0614517D0EE
:1003A000494522D051451DD059451DD0714501D137
:1003B00042461AE0B14202D14FF0807215E0134E6E
:1003C000B14201D1012210E0104E1436B14201D1E8
:1003D00010220AE00D4E2836B14206D00B4A3C32BC
:1003E000914201D11A4600E02A46074980394A6005
:1003F000012180F82110002180F82010416B01B10B
:1004000088472046BDE8F09F800002400804024073
:100410002DE9F05FC16B0A6801680B68046C4FF04E
:10042000040808FA04F8844D844E854FDFF814C29E
:10043000DFF81492DFF814A2DFF814B2DFF814E248
:1004400018EA020F65D05FEA437862D50A6892061F
:1004500003D40A6822F004020A60DFF8F0814FF446
:100460008062016808F1140813011402414524D97F
:10047000A9420DD0B1420FD0B9421AD0614515D072
:10048000494515D0514501D1120312E0594501D11A
:1004900004220EE0714501D140220AE06D4D143571
:1004A000A94206D06B4A2832914201D11A4600E097
:1004B00022466749091F0A6029E0A94213D0B142C8
:1004C00015D0B94220D061451BD049451BD05145BC
:1004D00002D14FF4800217E0414502D14FF0806213
:1004E00012E0594501D104220EE0714501D14022AC
:1004F0000AE0584D1435A94206D0564A2832914296
:1005000001D11A4600E022464B4908394A60C16AC7
:1005100071E04FF0020808FA04F818EA020F70D0F0
:100520005FEA83786DD50A68920606D40A6822F0DD
:100530000A020A60012180F82110DFF810814FF4CF
:100540000072016808F1140813011402414524D90E
:10055000A9420DD0B1420FD0B9421AD0614515D091
:10056000494515D0514501D1120312E0594501D139
:1005700002220EE0714501D120220AE0354D1435EA
:10058000A94206D0334A2832914201D11A4600E0EE
:1005900022462F49091F0A6029E0A94213D0B1421F
:1005A00015D0B94220D061451BD049451BD05145DB
:1005B00002D14FF4001217E0414502D14FF0007212
:1005C00012E0594501D102220EE0714501D12022ED
:1005D0000AE0204D1435A94206D01E4A2832914225
:1005E00001D11A4600E02246134908394A60002129
:1005F00080F82010816A00291CD0BDE8F05F084710
:10060000FFE70825A540154214D01A0712D50A683D
:1006100022F00E020A6090F84020C36B012101FA1B
:1006200002F25A60816380F82110002180F82010C6
:10063000016BE0E7BDE8F09F080002401C000240AB
:100640003000024044000240580002406C0002406A
:10065000080402401C04024030B560B11A4B026825
:1006600014219A4209D2194B1344B3FBF1F18900CA
:10067000016417490AE0012030BD134B5B4213446B
:10068000B3FBF1F1890001640F490839C16302210C
:1006900080F82110136843F6F0718B43F0E90114E0
:1006A0002143D0E902452C43214304692143446995
:1006B00021438469214319431160002141630122D0
:1006C00042770177084630BD08040240F8FFFDBFBD
:1006D0000000024070B5044690F820000025012873
:1006E0000CD0012084F8200094F821600020012E15
:1006F00006D084F820000225284670BD022070BD77
:10070000022684F82160A0632068066826F00106AE
:1007100006602046FFF7A4FDE06A00282068016813
:1007200002D041F00E0106E021F0040101602068D2
:10073000016841F00A0101602068016841F001018F
:100740000160D9E770470000044910B50A68024209
:1007500002D00860FFF7F6FF10BD0000140401404E
:100760002DE9F84FDFF8C891002409F1040A0AF1D5
:10077000040B23460F270BF1040ED1E00125A54001
:1007800006EA0502AA4276D1DFF8A8C14E68A6EBB8
:100790000C0866452BD00DDC032E34D005DC36B3B7
:1007A000012E19D0022E2FD11BE0112E16D0122EA1
:1007B0002AD119E0B8F5881F19D006DCB8F5803FBA
:1007C00015D0B8F5801F1FD111E0B8F5001F0ED06D
:1007D000B8F5041F18D10AE0CB6815E0CB681B1DE3
:1007E00012E0CB6808330FE0CB680C330CE08B6869
:1007F0002BB1012B4FF0080303D0456104E0042323
:1008000002E0056100E00023FF2A01D8064601E06E
:1008100000F104064FEA840501D9A5F12005D6F8B8
:10082000008007FA05FC28EA0C0803FA05F548EAF7
:100830000508C6F800804D68ED0070D53E4DAE69E4
:1008400046F00106AE61AD6924F0030605F001052E
:1008500000953A4D06EB050CDCF80850A607360F5C
:1008600007FA06F825EA0805DFF8D480404503D1E9
:100870004FF0000825E052E0DFF8C880404502D183
:100880004FF001081DE0DFF8C080404502D14FF075
:10089000020816E0DFF8B480404502D14FF00308AB
:1008A0000FE0DFF8AC80404502D14FF0040808E0CB
:1008B000DFF8A080404502D14FF0050801E04FF07D
:1008C000060808FA06F848EA0508CCF808804D68DA
:1008D000D9F80060ED034D4601D5164300E096437C
:1008E0002E604D68DAF80060AD03554601D5164319
:1008F00000E096432E604D68DBF80060ED025D4637
:1009000001D5164300E096432E604D68DEF8006086
:10091000AD02754601D5164300E096432E60641C77
:100920000A681646E2407FF429AFBDE8F88F000060
:1009300000040140000011100010024000000140BE
:1009400000080140000C014000100140001401406B
:1009500000180140001C01400148806870470000F9
:1009600004000020024881680278114481607047C9
:1009700004000020074810B5016841F01001016033
:10098000032000F075F8002000F006F800F024F8CD
:10099000002010BD0020024070B50D4D04464FF4FC
:1009A0007A712878B1FBF0F00A490968B1FBF0F0E0
:1009B00000F0ECFA48B9102C07D200222146501E54
:1009C00000F036F800206C6070BD012070BD0000A2
:1009D00004000020100000200C4808B5816941F097
:1009E00001018161816901F001010091C16941F05A
:1009F0008051C161C06900F0805000900448416896
:100A000021F0E06141F00071416008BD001002403A
:100A100000000140002809DB00F01F020121914085
:100A20004009800000F1E020C0F80011704700008C
:100A3000F0B40E4B1B680C46C3F30223C3F1070549
:100A4000042D00D90425191D072901D2002300E037
:100A5000DB1E012606FA05F1491E214099409E4001
:100A6000761E16403143F0BC01F05ABE0CED00E09A
:100A7000064900F0070208684FF6FF03184040EAF5
:100A80000220034A10430860704700000CED00E0AC
:100A90000000FA052DE9F0470F46050061D0434EEE
:100AA000306800F00700B84209D2306820F0070033
:100AB00038433060306800F00700B84251D12868F0
:100AC0003B4C810712D5400703D5606840F4E060D5
:100AD00060602878000703D5606840F4605060606B
:100AE0006068A96820F0F000084360602878C007BB
:100AF00028D06868012810D02168022810D0890702
:100B000000292EDA616821F0030101436160FFF7DB
:100B100023FF804641F288390DE021688903EFE721
:100B20008901EDE7FFF718FFA0EB0801494502D95D
:100B30000320BDE8F0876068696800F00C00B0EB46
:100B4000810FEFD1306800F00700B8420BD9306850
:100B500020F0070038433060306800F00700B842EA
:100B600001D00120E5E72878400705D56068E968ED
:100B700020F4E060084360602878000706D56068CC
:100B8000296920F4605040EAC100606000F038F844
:100B90006168084AC1F30311515CC8400649086006
:100BA00006480068FFF7F8FE0020C2E70020024078
:100BB00000100240942A00081000002008000020C5
:100BC0000448054900684968044AC1F30221515CA0
:100BD000C84070471000002000100240A42A0008FE
:100BE0000448054900684968044AC1F3C221515CC0
:100BF000C84070471000002000100240A42A0008DE
:100C000012A185B00FC98DE80F0014A0144A006826
:100C100004905168134801F00C03042B10D0082BEA
:100C20000ED1C1F38343C9031DF803000AD55168EF
:100C300004AAC1F34041515C0A4A5043B0FBF1F0B1
:100C400005B0704708494843FAE70000020304056D
:100C5000060708090A0B0C0D0E0F10100102000008
:100C60000010024000127A0000093D002DE9F84F03
:100C7000040070D02078C04DC00749D06868C0F328
:100C80008100012807D06868C0F38100022809D1DB
:100C90006868C00306D52868800339D560680028D5
:100CA000E7D035E06068B0F5803F0BD010B1B0F50B
:100CB000A02F11D0286820F480302860286820F404
:100CC000802002E0286840F480302860606890B19D
:100CD000FFF742FE06460AE0286840F480202860BC
:100CE000F0E700BFFFF738FE801B642873D8286840
:100CF0008003F7D50CE0FFF72FFE064605E000BFA6
:100D0000FFF72AFE801B6428F0D828688003F7D4F8
:100D100020789A4E80074FF001094FF0000839D52E
:100D2000686810F00C0F07D06868C0F381000228D3
:100D300009D16868C00306D42868800714D52069E3
:100D4000012808D110E02069B0B1C6F80090FFF783
:100D500003FE074605E00AE1FFF7FEFDC01B02287F
:100D6000C4D828688007F7D52868616920F0F800A2
:100D700040EAC10028600DE0C6F80080FFF7ECFDF6
:100D8000074604E0FFF7E8FDC01B022823D82868C7
:100D90008007F7D4207800072CD57948A169D9B10C
:100DA000C0F80090FFF7D8FD074604E0FFF7D4FD38
:100DB000C01B02280FD8686A8007F7D571484FF426
:100DC000FA510068B0FBF1F0009000BF0098411E9E
:100DD0000091FAD20EE080E0C0F80080FFF7BCFD81
:100DE000074604E0FFF7B8FDC01B022875D8686A03
:100DF0008007F7D42078400760D5E8690027C00055
:100E000008D4E86940F08050E861E869012700F003
:100E1000805000905C480168C90513D4016883467E
:100E200041F480710160FFF797FD824606E000BF44
:100E3000FFF792FDA0EB0A0064284ED8DBF8000013
:100E4000C005F5D5E06801280AD008B1052813D0FF
:100E5000286A20F001002862286A20F0040002E0DD
:100E6000286A40F001002862E06841F2883B98B1AE
:100E7000FFF772FD82460BE0286A40F0040028620A
:100E8000EEE700BFFFF768FDA0EB0A0159455AD80D
:100E9000286A8007F6D50CE0FFF75EFD824605E084
:100EA000FFF75AFDA0EB0A0159454CD8286A800784
:100EB000F6D41FB1E86920F08050E861E06988B39A
:100EC0006968C1F38101022944D00228C6F8608014
:100ED00004D0FFF741FD044638E034E0FFF73CFD65
:100EE000074604E0FFF738FDC01B02282BD828680E
:100EF0008001F7D4206AB0F5803F05D16868A16809
:100F000020F4003008436860D4E9080108436968A8
:100F100021F4741108436860C6F86090FFF71CFD67
:100F2000044606E025E000BFFFF716FD001B02287F
:100F300009D828688001F7D51BE000BFFFF70CFD3A
:100F4000001B022802D90320BDE8F88F2868800121
:100F5000F4D40EE00128F7D06868226A00F48031EA
:100F6000914204D1616A00F47010884201D00120DE
:100F7000EAE70020E8E700000010024000004242DB
:100F800080044242100000200070004010B5401E56
:100F9000B0F1807F01D3012010BD4FF0E0246061EB
:100FA0000F21601701F0BCFB0020A0610720206129
:100FB000002010BD7047704710B590F83C20012A02
:100FC00022D0012280F83C20CA688C6822F440724A
:100FD00022434C6822F4806222430C6822F40062AF
:100FE00022430C6922F4805222434C6922F40052BD
:100FF0002243C969002322F480420A4301684A64FB
:1010000080F83C30002010BD022010BD70B590F873
:101010003C20012A2CD0012480F83C40022280F898
:101020003D2003685A689D6822F070060A683243C2
:101030005A60104B02689A420ED00F4B9A420BD066
:10104000B2F1804F08D00D4B9A4205D00C4B9A421A
:1010500002D00C4B9A4204D1496825F08003194311
:10106000916080F83D40002180F83C10084670BD3A
:10107000022070BD002C01400034014000040040FB
:1010800000080040000C004010B5040003D094F8A4
:101090003D0010B107E0012010BD002084F83C00A5
:1010A000204600F01FF8022084F83D00211D206832
:1010B00000F0DCFF012084F8460084F83E0084F84C
:1010C0003F0084F8400084F8410084F8420084F82E
:1010D000430084F8440084F8450084F83D00002073
:1010E00010BD000008B50C4A01680C48914207D1B8
:1010F000C16941F00801C161C06900F0080009E060
:10110000074A914207D1816941F4005181618069A8
:1011100000F40050009008BD000C00400010024098
:101120000034014070B5044690F83C00012817D007
:10113000012584F83C50022084F83D002068826834
:1011400022F0770222F47F4282600868502830D073
:101150000DDC20284DD005DC98B310283BD148E0A9
:10116000022070BD302844D0402834D139E06028B6
:1011700028D0702806D0B0F5805F2CD0B0F5005F85
:1011800029D10AE0CB68D1E90121206800F0C1FF34
:101190002068816841F0770109E0CB68D1E901213D
:1011A000206800F0B6FF2068816841F480418160CA
:1011B00011E0CA684968206801F080F85021206871
:1011C00007E016E0CA684968206801F088F86021E5
:1011D000206800F0A8FF84F83D50002084F83C000F
:1011E00070BDCA684968206801F068F8402120682D
:1011F000EFE7226801461046EBE72DE9F0410D4686
:10120000040003D094F83D0018B108E00120BDE8C7
:10121000F081002084F83C00204600F041F80220D4
:1012200084F83D002068816844F2070291438160A0
:10123000211D206800F01AFF226890689169166AE3
:101240002B68AF69034340F20330814341EA072131
:10125000A868EF6908434FF6FC418843E96840EA13
:101260000720014328692F6A000140EA073008433C
:1012700069686D6926F0220646EA051529439360E0
:101280002268906154F8460B0162012004F81F099E
:10129000E0752076E0762077A0750020B7E70000A3
:1012A00010B586B00024009401940294039402685F
:1012B0002E492F48B2F1804F22D02E4B9A421DD199
:1012C000CA6942F00202CA61CA6902F002020492CB
:1012D0008A6942F004028A61896901F0040104917B
:1012E000C02100916946FFF73BFA002206211D202C
:1012F000FFF79EFB5FF01D00FFF78CFB06B010BDF3
:10130000CA6942F00102CA61CA6902F0010204928C
:101310008A6942F004028A618A6902F00402049236
:101320008A6942F008028A61896901F00801049122
:101330004FF4004100916946FFF712FA0820CDE909
:10134000000469460C480294FFF70AFA0B4841680A
:1013500021F4407141F0E06141F48071416000226C
:1013600005211C20FFF764FB1C20C5E7001002408C
:101370000008014000040040000C01400000014052
:1013800070B590F83E60044690F83F5090F84230B7
:1013900090F84320022021B104290ED0012E1BD148
:1013A00014E0012E18D1012B16D184F83E0084F8E8
:1013B000420001220021206820E0012D0CD1012AE9
:1013C0000AD184F83F0084F8430014E0012D03D1D2
:1013D000012B01D1012A01D0012070BD84F83E000B
:1013E00084F83F0084F8420084F843000122002181
:1013F000206800F081FE01220421206800F07CFEBC
:101400002068016841F001010160002070BD704753
:1014100070B50446006801694FF00005C9438907AB
:1014200015D4C168C943890711D4E91E016101209F
:101430002077206880698007204602D0FFF7E7FF09
:1014400004E000F0C1F8204600F050F9257720684C
:101450000169C943490717D4C168C943490713D46F
:101460006FF004010161022020772068806910F488
:10147000407F204602D0FFF7CAFF04E000F0A4F846
:10148000204600F033F9257720680169C943090730
:1014900016D4C168C943090712D46FF0080101616D
:1014A000042020772068C0698007204602D0FFF71B
:1014B000AEFF04E000F088F8204600F017F9257729
:1014C00020680169C943C90617D4C168C943C90660
:1014D00013D46FF010010161082020772068C069E3
:1014E00010F4407F204602D0FFF791FF04E000F0A7
:1014F0006BF8204600F0FAF8257720680169C943A7
:10150000C90708D1C168C943C90704D1891E01614F
:10151000204600F047F920680169C943090609D44B
:10152000C168C943090605D46FF0800101612046F6
:10153000FFF740FD20680169C943490609D4C16825
:10154000C943490605D46FF040010161204600F00F
:101550003BF920680169C94389060BD4C168C943B6
:10156000890607D46FF0200101612046BDE8704074
:10157000FFF721BD70BD000000B585B000210091CE
:1015800001910291039100680C49884213D10C48E3
:10159000816941F0100181618069694600F01000A5
:1015A00004904FF47070009002200190032003908B
:1015B0000448FFF7D5F805B000BD00000034014035
:1015C0000010024000100140704770B5044690F8CA
:1015D0003C000D4601280AD0012084F83C0042B1AD
:1015E000042A18D0082A2AD00C2A4DD139E002202A
:1015F00070BD206800F0A0FD2068816941F00801FD
:1016000081612068816921F004018161206881691C
:101610002A69114311E0206800F0BEFD206881694D
:1016200041F4006181612068816921F480618161F8
:10163000206881692A6941EA0221816124E02068E9
:1016400000F0E0FD2068C16941F00801C161206837
:10165000C16921F00401C1612068C1692A6911438F
:1016600011E0206800F002FE2068C16941F40061C9
:10167000C1612068C16921F48061C1612068C169CC
:101680002A6941EA0221C161002084F83C0070BD52
:1016900010B5040003D094F83D0010B107E001201C
:1016A00010BD002084F83C00204600F01EF8022007
:1016B00084F83D00211D206800F0D8FC012084F84A
:1016C000460084F83E0084F83F0084F8400084F827
:1016D000410084F8420084F8430084F8440084F810
:1016E000450084F83D00002010BD704770470000A1
:1016F00010B50446022249B104290ED0082913D09E
:1017000094F84100012816D0012010BD94F83E0045
:101710000128F9D184F83E200FE094F83F00012819
:10172000F2D184F83F2008E094F840000128EBD182
:1017300084F8402001E084F841200122206800F074
:10174000DBFC13492068134A884201D0904203D140
:10175000436C43F400434364206888420DD09042B8
:101760000BD0B0F1804F08D00B49884205D00B490F
:10177000884202D00A49884204D1816801F00701F9
:10178000062903D0016841F001010160002010BD6D
:10179000002C0140003401400004004000080040DB
:1017A000000C00400068B0F1804F06D00449884228
:1017B00002D1044800680068704702484838F9E7D9
:1017C00000040040600000207047704710B50446D8
:1017D0000068416994F83D20C1F3C011212A0BD162
:1017E00051B1416921F080014161606B08B1FEF7A0
:1017F00053FD204600F004FE2068416994F83E2025
:10180000C1F38011222A0BD151B1416921F040016D
:101810004161A06B08B1FEF73FFD204600F0D8FD06
:10182000002010BD70470000F8B50268044610683B
:10183000D168536910F00F0F4FF0000553D003F03B
:10184000010601F4907737435FD0C20705D0CA057F
:1018500003D5226C42F001022264420705D5DA0763
:1018600003D0226C42F002022264820705D5DA0717
:1018700003D0226C42F004022264020707D501F073
:101880002002324303D0226C42F008022264226C10
:10189000002A34D0800604D5880602D5204600F000
:1018A000B8FD20684069216CC0F38010090700D49E
:1018B00030B3204600F08CFD2068416949061BD5F5
:1018C000416921F040014161A06BA8B158494163D1
:1018D000A06BFEF705FD002811D0A06B416B01B095
:1018E000BDE8F040084783060FD58B060DD520468E
:1018F000BDE8F84000F08DBD2046FFF793FFF8BD2E
:101900002046FFF78FFF2564F8BD266B2023012EAC
:1019100052D1C60650D5CE064ED5106850680090FC
:10192000506940062AD5A16B086840680004000C85
:10193000EAD0A68D8642E7D9E0858869202818D0AC
:10194000D06820F48070D0602068416921F00101E6
:1019500041612068416921F04001416184F83E30D5
:1019600025632068C16821F01001C160A06BFEF7FB
:1019700093FCA08DE18D401A81B219E0A08DE18D1C
:10198000401A81B2E08D0028BED00029BCD0D068BA
:1019900020F49070D0602068426922F00102426118
:1019A00084F83E3025632068C26822F01002C260CD
:1019B0002046FFF70AFFF8BD05062BD50D0629D5F1
:1019C00094F83D002128F6D1A068B0F5805F01D1E0
:1019D0002069B0B1206A411C21622168007848600A
:1019E000E08C401E0004000CE084E4D12068C16853
:1019F00021F08001C1602068C16841F04001C160F0
:101A0000F8BD206A0088C0F308005060206A801C7E
:101A10002062E5E74006F3D54806F1D5D1682046B7
:101A200021F04001D16084F83D3000F0C6F9F8BDE6
:101A30000323000870B5040004D094F83D0000258D
:101A400010B106E0012070BD84F83C50204600F043
:101A500023F8242084F83D002068C16821F4005157
:101A6000C160204600F030FD2068016921F49041FA
:101A700001612068416921F02A0141612068C16843
:101A800041F40051C1602564202084F83D0084F8B1
:101A90003E00002070BD0000F0B585B00024009429
:101AA000019402940394054603685248DFF840C14C
:101AB000471502220321504E634525D1836943F423
:101AC00080438361836903F480430493836943F013
:101AD00004038361806900F00400CDE90310CDE9BF
:101AE000007269463046FEF73BFE3015CDE9000432
:101AF000694630460294FEF733FE0022012125207C
:101B0000FEF796FF252029E0DFF8F0C0634529D1D4
:101B1000C36943F40033C361C36903F4003304931E
:101B2000836943F0040383618069039100F004003A
:101B300004900420CDE9000269463046FEF710FE0D
:101B40000820CDE90004694630460294FEF708FEFD
:101B5000002202212620FEF76BFF2620FEF75AFF07
:101B600005B0F0BD264EB342FAD1C36943F48023D9
:101B7000C361C36903F480230493836943F02003A2
:101B800083618069039100F020000490B015CDE9D5
:101B900000021C4E69463046FEF7E2FDCDE90074B6
:101BA000694630460294FEF7DBFD1748416821F094
:101BB000300141F0E06141F030014160144E1348C2
:101BC000C6E900048020C6E9024034617461B46152
:101BD0003046F461FEF740FD08B1FEF75BFBAE63F3
:101BE0000022032127207562FEF722FF2720B5E798
:101BF000003801400010024000080140004400404D
:101C00000048004000140140000001403000024044
:101C10006802002090F83E30202B0ED159B152B10D
:101C200090F83C30012B08D0012380F83C30002391
:101C3000036300F0A5BC012070470220704790F8B4
:101C40003E30202B0ED159B152B190F83C30012BCF
:101C500008D0012380F83C300023036300F0C8BCA7
:101C60000120704702207047F8B505460068184902
:101C700088422CD10168174CC94389064FF00006F1
:101C800011D44168144A20786328115403D913A051
:101C900000F036FD267020780122401C20700E498D
:101CA0002846FFF7CCFF28680068C043C0060ED462
:101CB0000DA000F025FD08496423227801F164009D
:101CC00000F022F826702868016840680090F8BD8E
:101CD0000048004000000020380100203E39395FF4
:101CE0005F5F5F5F5F0A000075617274335F6A79DE
:101CF000393031735F69646C655F5F5F5F5F5F0A96
:101D000000000000704700002DE9F843044690F8F9
:101D10003D001F4616460D4620284CD1C5B1BEB128
:101D200094F83C00012846D0012084F83C004FF094
:101D30000008C4F84080212084F83D00FEF70CFE26
:101D4000A6848146E684A068B0F5805F03D004E0F5
:101D50000120BDE8F883206928B12E465FF0000518
:101D600084F83C800EE00026FAE78021204600F04F
:101D70005AFCA0B9AEB116F8010B21684860E08C9E
:101D8000401EE084E08C4B464FF000020097002894
:101D9000EBD14FF04001204600F045FC30B103206C
:101DA000D7E735F8020BC0F30800E6E7202084F8F7
:101DB0003D000020CDE70220CBE77047FEE70000A2
:101DC000054808B5816941F004018161806900F02E
:101DD0000400009008BD00000010024010B58CB057
:101DE00024216846FEF7D7F90024164809944FF0DD
:101DF00080410A94C0E900144FF6FF71C0E9024126
:101E0000046184610320CDE900040120CDE90204CE
:101E10000A210491CDE90540CDE907416946094809
:101E2000FFF7EBF908B1FEF735FA099409A905485F
:101E30000A94FFF7EBF8002801D0FEF72BFA0CB05C
:101E400010BD00001800002010B58CB02421684699
:101E5000FEF7A1F900241748099415490A94C0E92E
:101E600000144FF6FF71C0E9024104618461032050
:101E70000090022001900120CDE902040A21049182
:101E8000CDE90540CDE9074169460A48FFF7B5F9B4
:101E900008B1FEF7FFF9099409A906480A94FFF76B
:101EA000B5F8002801D0FEF7F5F90CB010BD000020
:101EB000000400406000002010B596B000240F948C
:101EC00010941194129413941C2168461494FEF7F4
:101ED00062F9202107A8FEF75EF934483249C0E9CB
:101EE000001441F61F41C0E902410461446184616C
:101EF000FFF7CAF808B1FEF7CDF94FF480500F9004
:101F00000FA92A48FFF70EF908B1FEF7C3F92748D1
:101F1000FFF7BEFB08B1FEF7BDF9139413A92348E0
:101F20001494FFF773F808B1FEF7B4F96020CDE917
:101F300000040294039404940594002269461B480B
:101F40000694FFF742FB08B1FEF7A4F904226946A4
:101F50001648FFF73AFB08B1FEF79CF908226946DC
:101F60001248FFF732FB08B1FEF794F90C226946DC
:101F70000E48FFF72AFB08B1FEF78CF90794089486
:101F800009944FF400500A94CDE90B4007A9074883
:101F90000E94FFF711F808B1FEF77CF90348FFF73C
:101FA000EBFA16B010BD000000340140F000002034
:101FB0000C4810B50A4901604FF4E131416000213D
:101FC00081600C22C160C0E904128161C161FFF728
:101FD00031FD002803D0BDE81040FEF75BB910BD0D
:101FE00000440040E0010020FEE7FEE77047704734
:101FF000FEF7B8BC30B58FB028216846FEF7CBF8A5
:1020000014210AA8FEF7C7F801210804CDE9001041
:102010000024029402250491CDE907504FF4E0100A
:1020200009906846FEF722FE08B172B6FEE70F205F
:10203000CDE90A054FF48060CDE90C4002210AA8E1
:102040000E94FEF727FD002801D072B6FEE70FB010
:1020500030BD70470148FFF7DBB9000018000020D1
:102060000148FFF7D5B9000060000020F0B5026814
:102070001C4B1D4D1D4E1E4F1E4C4FF0804C984268
:1020800009D0A04207D0604505D0A84203D0B04295
:1020900001D0B84204D122F0700E4A6842EA0E0222
:1020A000984209D0A04207D0604505D0A84203D08D
:1020B000B04201D0B84203D122F44075CA682A4325
:1020C0004D6922F080022A4302608A68C2620A686F
:1020D0008262984201D0A04201D1096901630121C5
:1020E0004161F0BD002C01400004004000080040A8
:1020F000000C00400034014010B501F01F03012125
:10210000046A99408C430462016A9A401143016257
:1021100010BD10B5846842EA032224F47F440A43C8
:102120002243826010BD826822F070020A4342F0AE
:102130000701816070470000F0B5026A22F00102D9
:102140000262036A42688469124E24F073050C68C7
:102150002C4323F002058B682B430D4DA84201D080
:10216000B04205D123F00807CB683B4323F00403BA
:10217000A84201D0B04205D14D6922F44072154306
:102180008A692A4342608461496841630362F0BD01
:10219000002C014000340140F0B5026A22F0100228
:1021A0000262026A436884690D6824F4E64444EAE2
:1021B00005248D6822F0200242EA05120F4D104ED0
:1021C000A84201D0B04206D1CF6822F0800242EA94
:1021D000071222F04002A84201D0B04207D14D6957
:1021E00023F4406343EA85038D6943EA8503436032
:1021F0008461496881630262F0BD0000002C0140E7
:1022000000340140F0B5026A22F480720262026A70
:102210004368C46922F4007224F073050C68124EFE
:102220002C438D6842EA05220E4DA84201D0B042EF
:1022300006D1CF6822F4006242EA072222F48062CB
:10224000A84201D0B04207D14D6923F4405343EA7C
:1022500005138D6943EA05134360C4614968C1638E
:102260000262F0BD002C01400034014030B5026A2A
:1022700022F480520262046A4268C3690D6823F442
:10228000E64343EA05238D6824F4005444EA053408
:10229000084DA84202D0084DA84204D14D6922F44D
:1022A000804242EA85124260C36149680164046267
:1022B00030BD0000002C01400034014010B5036A1D
:1022C000046A24F001040462846924F0F00444EAFE
:1022D000021423F00A020A438461026210BD10B5A1
:1022E000036A23F0100303628369046A23F47043D2
:1022F00043EA023224F0A00343EA01118261016241
:1023000010BD10B5406A0021C185C184FFF78AFA6B
:1023100010BD70B5446A2068406994F83D10C0F360
:10232000C0100025212904D118B1E584204600F011
:1023300067F82068406994F83E10C0F380102229A5
:1023400004D118B1E585204600F042F8206C40F039
:10235000100020642046FFF765FA70BD10B50146F5
:10236000406A0968096889061BD40021C185016893
:10237000CA6822F48072CA6001684A6922F00102C8
:102380004A6101684A6922F040024A61202180F8CE
:102390003E10016B012904D10168CA6822F01002C5
:1023A000CA60016B012902D0FFF75EFC10BD818D70
:1023B000FFF70BFA10BD10B5406A016B012902D07E
:1023C000FFF7A0FC10BD818D4908FFF7FEF910BD95
:1023D0000168CA6822F49072CA6001684A6922F0F2
:1023E00001024A61016B012904D10168CA6822F027
:1023F0001002CA60202180F83E100021016370475E
:102400000168CA6822F0C002CA60202180F83D102D
:10241000704708B590F83E10222901D0022008BD6F
:1024200082684FF480539A4201D1016921B1816AD7
:102430009A421BD04AB10AE00268816A5268C2F32C
:1024400008020A80816A891C08E0026972B1026888
:10245000526802F07F020A70816A491C8162C18D54
:10246000491E0904090CC18503D019E002685268AD
:10247000F1E70168CA6822F02002CA600168CA68F0
:1024800022F48072CA6001684A6922F001024A613E
:10249000202180F83E10016B012903D0FFF7E4FBF7
:1024A000002008BD002101630168CA6822F0100203
:1024B000CA6001680A68D20602D50A6849680091B4
:1024C000818DFFF782F9EBE770B50446006801697A
:1024D000E26821F44051114301612169A068084379
:1024E000616908432168CA6841F20C639A43024358
:1024F000CA6020684169A26921F4407111434161B9
:102500001E492068884202D1FEF76AFB01E0FEF70F
:1025100057FB00EBC00101EB0012606864218000F2
:10252000B2FBF0F3B3FBF1F36FF018067343B2FBA9
:10253000F0F5B2FBF0F605EB8305322303EB05154E
:10254000B5FBF1F5B6FBF1F605F0F00505EB061568
:10255000B2FBF0F6B2FBF0F0B0FBF1F06FF0180256
:10256000504306EB800003EB0010B0FBF1F0216854
:1025700000F00F002844886070BD00000038014062
:1025800038B5816282850025134604460564222001
:1025900084F83E00A26B13489062A26B1248D0628E
:1025A000A26B12481063A06B0A4645632168A06BBA
:1025B000091DFEF78FF8206801684168009184F8D2
:1025C0003C50C16841F48071C1602068416941F0AC
:1025D000010141612068416941F0400141610020F1
:1025E00038BD00005D230008B7230008132300084E
:1025F00081628285C28500210164222280F83E200A
:1026000080F83C100168CA6842F48072CA600168B0
:102610004A6942F001024A610068C16841F0200144
:10262000C160002070472DE9F041984617460E46DC
:102630000446069D1DE0681C1BD02DB1FEF78CF9E9
:10264000A0EB0800A84214D92068C16821F4D07119
:10265000C1602068416921F001014161202084F8B6
:102660003D0084F83E00002084F83C000320BDE8D3
:10267000F0812068006836EA000004D00020B842EB
:10268000D9D00020F3E70120F9E700000148FFF767
:10269000CBB800009C0100200148FFF7C5B800003E
:1026A000E001002010B51148FFF7BEF80F4C20687C
:1026B0000168C1F3001169B16FF01001016020469B
:1026C000FFF784F80A48006840680A4980B2C0F100
:1026D000640008702068C16841F02001C160BDE855
:1026E0001040642204490148FFF794BA24020020F4
:1026F000680200200000002038010020FEE70000F2
:102700000FB4054B10B503A9044A029800F028F84D
:1027100010BC5DF814FB00008D2900081400002097
:102720000907090E002804DB00F1E02080F80014FE
:10273000704700F00F0000F1E02080F8141D704792
:1027400002E008C8121F08C1002AFAD1704770477A
:10275000002001E001C1121F002AFBD170470000D8
:102760002DE9FF4F8BB09A460F460446002606E03F
:1027700025280BD052460D999047641C761C207872
:102780000028F5D10FB03046BDE8F08F0025A946EE
:1027900001227D4900E0054314F8013F203B02FA85
:1027A00003F00842F7D120782E2817D114F8010F32
:1027B00045F004052A280ED06FF02F022078A0F1F2
:1027C000300109290AD809EB890102EB410100EB2C
:1027D0000109641CF2E757F8049B641C20786C28FC
:1027E0000DD004DC4C2812D06A2811D104E07428E2
:1027F0000DD07A280CD10AE045F4001507E0617885
:1028000045F48015814202D1641C05F58015641CD5
:10281000207869283ED006DC0028B3D063280BD08E
:10282000642804D136E0732810D075285CD0524655
:102830000D999047761CA5E017F8040B8DF8000061
:1028400000208DF80100E846012003E057F8048BD2
:102850004FF0FF3069074FF0000501D40AE06D1C0E
:102860004D450DDA8542FADB18F805100029F6D13E
:1028700006E06D1C8542FCDB18F805100029F8D134
:102880002E4404E018F8010B52460D9990476D1E36
:10289000F8D277E000200A90C5F302504FF00A0BFF
:1028A00002280CD001CFC117021E71F100020CDA10
:1028B0000023D0EB030063EB01012D2208E0FF1D94
:1028C00027F00707F7E80201EEE72A0504D52B22D7
:1028D0008DF82420012203E0EA070FD02022F7E739
:1028E0000DF12008089218E000200A90C5F302506C
:1028F0004FF00A0B022803D001CF00210022EFE79E
:10290000FF1D27F00707F7E80201F7E75A460A9B81
:10291000FDF74CFC303208F8012D50EA0102F5D1E8
:10292000ADEB080000F1200B680701D44FF001095E
:10293000D94502DDA9EB0B0000E00020814600250F
:1029400006E009A85246405D0D9990476D1C761C23
:1029500008988542F5DB04E0302052460D999047F7
:10296000761CB9F10001A9F10109F5DC05E018F8C0
:10297000010B52460D999047761CBBF10001ABF15B
:10298000010BF4DC641CFAE60928010013B54FF0D2
:10299000FF33012269460248FFF7B6F900981CBDD3
:1029A000E0010020FDF7E6FFFFF724FBFFF700FB47
:1029B000FFF714FAFFF748FAFFF77EFA01222349DE
:1029C0002348FFF73CF93C212248FEF7D9FC3C2183
:1029D0002148FEF7D5FC00212048FEF789FE04219E
:1029E0001E48FEF785FE08211C48FEF781FE0C21DB
:1029F0001A48FEF77DFEFFF7E3F9002418A0FFF761
:102A00007FFE164DDFF860A0DFF84890124F4FF4BC
:102A10007A76A0462868466328688663641C544515
:102A2000F8DDD9F800004C46416A10A0FFF768FEB7
:102A30003868416A12A0FFF763FE2168C1F824805C
:102A40003968C1F824800024E4E70000AC020020CB
:102A5000E00100201800002060000020F0000020AD
:102A600073746172740A000080969800656E636FDB
:102A70006465725F72696768743A256C640A000065
:102A8000656E636F6465725F6C6566743A256C642D
:102A90000A00000000000000000000000102030422
:102AA000060708090000000001020304CC2A000800
:102AB000000000201800000040270008E42A000859
:102AC00018000020F8060000502700080000000051
:102AD0000100000010000000000000000024F400CD
:042AE00000000000F2
:0400000508000131BD
:00000001FF
